{
  "_format": "hh-sol-artifact-1",
  "contractName": "SupplyChain",
  "sourceName": "contracts/SupplyChain.sol",
  "abi": [
    {
      "inputs": [],
      "stateMutability": "nonpayable",
      "type": "constructor"
    },
    {
      "inputs": [],
      "name": "customersSelfOrderRecord",
      "outputs": [
        {
          "components": [
            {
              "internalType": "string",
              "name": "customerName",
              "type": "string"
            },
            {
              "internalType": "uint256",
              "name": "amount",
              "type": "uint256"
            },
            {
              "internalType": "address",
              "name": "adr",
              "type": "address"
            },
            {
              "internalType": "uint256",
              "name": "timeStamp",
              "type": "uint256"
            },
            {
              "internalType": "uint256",
              "name": "productID",
              "type": "uint256"
            },
            {
              "internalType": "string",
              "name": "productName",
              "type": "string"
            }
          ],
          "internalType": "struct SupplyChain.Customer[]",
          "name": "",
          "type": "tuple[]"
        }
      ],
      "stateMutability": "view",
      "type": "function"
    },
    {
      "inputs": [],
      "name": "getAccountBalance",
      "outputs": [
        {
          "internalType": "uint256",
          "name": "",
          "type": "uint256"
        }
      ],
      "stateMutability": "view",
      "type": "function"
    },
    {
      "inputs": [],
      "name": "getCustomersDetails",
      "outputs": [
        {
          "components": [
            {
              "internalType": "string",
              "name": "customerName",
              "type": "string"
            },
            {
              "internalType": "uint256",
              "name": "amount",
              "type": "uint256"
            },
            {
              "internalType": "address",
              "name": "adr",
              "type": "address"
            },
            {
              "internalType": "uint256",
              "name": "timeStamp",
              "type": "uint256"
            },
            {
              "internalType": "uint256",
              "name": "productID",
              "type": "uint256"
            },
            {
              "internalType": "string",
              "name": "productName",
              "type": "string"
            }
          ],
          "internalType": "struct SupplyChain.Customer[]",
          "name": "",
          "type": "tuple[]"
        }
      ],
      "stateMutability": "view",
      "type": "function"
    },
    {
      "inputs": [
        {
          "internalType": "address",
          "name": "_customer",
          "type": "address"
        }
      ],
      "name": "ordersByAddress",
      "outputs": [
        {
          "components": [
            {
              "internalType": "string",
              "name": "customerName",
              "type": "string"
            },
            {
              "internalType": "uint256",
              "name": "amount",
              "type": "uint256"
            },
            {
              "internalType": "address",
              "name": "adr",
              "type": "address"
            },
            {
              "internalType": "uint256",
              "name": "timeStamp",
              "type": "uint256"
            },
            {
              "internalType": "uint256",
              "name": "productID",
              "type": "uint256"
            },
            {
              "internalType": "string",
              "name": "productName",
              "type": "string"
            }
          ],
          "internalType": "struct SupplyChain.Customer[]",
          "name": "",
          "type": "tuple[]"
        }
      ],
      "stateMutability": "view",
      "type": "function"
    },
    {
      "inputs": [
        {
          "internalType": "uint256",
          "name": "_productID",
          "type": "uint256"
        },
        {
          "internalType": "string",
          "name": "_customerName",
          "type": "string"
        },
        {
          "internalType": "string",
          "name": "_productName",
          "type": "string"
        }
      ],
      "name": "pay",
      "outputs": [],
      "stateMutability": "payable",
      "type": "function"
    },
    {
      "inputs": [
        {
          "internalType": "address payable",
          "name": "reciever",
          "type": "address"
        }
      ],
      "name": "transferAmount",
      "outputs": [],
      "stateMutability": "payable",
      "type": "function"
    }
  ],
  "bytecode": "0x6080604052600060025534801561001557600080fd5b50336000806101000a81548173ffffffffffffffffffffffffffffffffffffffff021916908373ffffffffffffffffffffffffffffffffffffffff1602179055506118b9806100656000396000f3fe6080604052600436106100555760003560e01c8063270131521461005a5780636896fabf14610085578063691d72b3146100b05780639717552f146100cc578063ab5fbcc6146100e8578063b564b73a14610113575b600080fd5b34801561006657600080fd5b5061006f610150565b60405161007c9190611040565b60405180910390f35b34801561009157600080fd5b5061009a6103d5565b6040516100a79190611071565b60405180910390f35b6100ca60048036038101906100c59190611201565b6103f4565b005b6100e660048036038101906100e191906112ca565b610690565b005b3480156100f457600080fd5b506100fd610768565b60405161010a9190611040565b60405180910390f35b34801561011f57600080fd5b5061013a60048036038101906101359190611323565b610a48565b6040516101479190611040565b60405180910390f35b606060008054906101000a900473ffffffffffffffffffffffffffffffffffffffff1673ffffffffffffffffffffffffffffffffffffffff163373ffffffffffffffffffffffffffffffffffffffff16146101e0576040517f08c379a00000000000000000000000000000000000000000000000000000000081526004016101d7906113ad565b60405180910390fd5b6003805480602002602001604051908101604052809291908181526020016000905b828210156103cc57838290600052602060002090600602016040518060c0016040529081600082018054610235906113fc565b80601f0160208091040260200160405190810160405280929190818152602001828054610261906113fc565b80156102ae5780601f10610283576101008083540402835291602001916102ae565b820191906000526020600020905b81548152906001019060200180831161029157829003601f168201915b50505050508152602001600182015481526020016002820160009054906101000a900473ffffffffffffffffffffffffffffffffffffffff1673ffffffffffffffffffffffffffffffffffffffff1673ffffffffffffffffffffffffffffffffffffffff168152602001600382015481526020016004820154815260200160058201805461033b906113fc565b80601f0160208091040260200160405190810160405280929190818152602001828054610367906113fc565b80156103b45780601f10610389576101008083540402835291602001916103b4565b820191906000526020600020905b81548152906001019060200180831161039757829003601f168201915b50505050508152505081526020019060010190610202565b50505050905090565b60003373ffffffffffffffffffffffffffffffffffffffff1631905090565b60008054906101000a900473ffffffffffffffffffffffffffffffffffffffff1673ffffffffffffffffffffffffffffffffffffffff166108fc479081150290604051600060405180830381858888f1935050505015801561045a573d6000803e3d6000fd5b5060036040518060c001604052808481526020013481526020013373ffffffffffffffffffffffffffffffffffffffff16815260200142815260200185815260200183815250908060018154018082558091505060019003906000526020600020906006020160009091909190915060008201518160000190816104de91906115d9565b506020820151816001015560408201518160020160006101000a81548173ffffffffffffffffffffffffffffffffffffffff021916908373ffffffffffffffffffffffffffffffffffffffff160217905550606082015181600301556080820151816004015560a082015181600501908161055991906115d9565b505050600360025481548110610572576105716116ab565b5b9060005260206000209060060201600160003373ffffffffffffffffffffffffffffffffffffffff1673ffffffffffffffffffffffffffffffffffffffff168152602001908152602001600020600082018160000190816105d391906116f0565b50600182015481600101556002820160009054906101000a900473ffffffffffffffffffffffffffffffffffffffff168160020160006101000a81548173ffffffffffffffffffffffffffffffffffffffff021916908373ffffffffffffffffffffffffffffffffffffffff16021790555060038201548160030155600482015481600401556005820181600501908161066d91906116f0565b509050506001600260008282546106849190611807565b92505081905550505050565b60008054906101000a900473ffffffffffffffffffffffffffffffffffffffff1673ffffffffffffffffffffffffffffffffffffffff163373ffffffffffffffffffffffffffffffffffffffff161461071e576040517f08c379a0000000000000000000000000000000000000000000000000000000008152600401610715906113ad565b60405180910390fd5b8073ffffffffffffffffffffffffffffffffffffffff166108fc349081150290604051600060405180830381858888f19350505050158015610764573d6000803e3d6000fd5b5050565b6060600060025467ffffffffffffffff811115610788576107876110d6565b5b6040519080825280602002602001820160405280156107c157816020015b6107ae610db8565b8152602001906001900390816107a65790505b50905060005b600254811015610a4057600381815481106107e5576107e46116ab565b5b906000526020600020906006020160020160009054906101000a900473ffffffffffffffffffffffffffffffffffffffff1673ffffffffffffffffffffffffffffffffffffffff163373ffffffffffffffffffffffffffffffffffffffff1603610a2d576003818154811061085d5761085c6116ab565b5b90600052602060002090600602016040518060c0016040529081600082018054610886906113fc565b80601f01602080910402602001604051908101604052809291908181526020018280546108b2906113fc565b80156108ff5780601f106108d4576101008083540402835291602001916108ff565b820191906000526020600020905b8154815290600101906020018083116108e257829003601f168201915b50505050508152602001600182015481526020016002820160009054906101000a900473ffffffffffffffffffffffffffffffffffffffff1673ffffffffffffffffffffffffffffffffffffffff1673ffffffffffffffffffffffffffffffffffffffff168152602001600382015481526020016004820154815260200160058201805461098c906113fc565b80601f01602080910402602001604051908101604052809291908181526020018280546109b8906113fc565b8015610a055780601f106109da57610100808354040283529160200191610a05565b820191906000526020600020905b8154815290600101906020018083116109e857829003601f168201915b505050505081525050828281518110610a2157610a206116ab565b5b60200260200101819052505b8080610a389061183b565b9150506107c7565b508091505090565b606060008054906101000a900473ffffffffffffffffffffffffffffffffffffffff1673ffffffffffffffffffffffffffffffffffffffff163373ffffffffffffffffffffffffffffffffffffffff1614610ad8576040517f08c379a0000000000000000000000000000000000000000000000000000000008152600401610acf906113ad565b60405180910390fd5b600060025467ffffffffffffffff811115610af657610af56110d6565b5b604051908082528060200260200182016040528015610b2f57816020015b610b1c610db8565b815260200190600190039081610b145790505b50905060005b600254811015610dae5760038181548110610b5357610b526116ab565b5b906000526020600020906006020160020160009054906101000a900473ffffffffffffffffffffffffffffffffffffffff1673ffffffffffffffffffffffffffffffffffffffff168473ffffffffffffffffffffffffffffffffffffffff1603610d9b5760038181548110610bcb57610bca6116ab565b5b90600052602060002090600602016040518060c0016040529081600082018054610bf4906113fc565b80601f0160208091040260200160405190810160405280929190818152602001828054610c20906113fc565b8015610c6d5780601f10610c4257610100808354040283529160200191610c6d565b820191906000526020600020905b815481529060010190602001808311610c5057829003601f168201915b50505050508152602001600182015481526020016002820160009054906101000a900473ffffffffffffffffffffffffffffffffffffffff1673ffffffffffffffffffffffffffffffffffffffff1673ffffffffffffffffffffffffffffffffffffffff1681526020016003820154815260200160048201548152602001600582018054610cfa906113fc565b80601f0160208091040260200160405190810160405280929190818152602001828054610d26906113fc565b8015610d735780601f10610d4857610100808354040283529160200191610d73565b820191906000526020600020905b815481529060010190602001808311610d5657829003601f168201915b505050505081525050828281518110610d8f57610d8e6116ab565b5b60200260200101819052505b8080610da69061183b565b915050610b35565b5080915050919050565b6040518060c001604052806060815260200160008152602001600073ffffffffffffffffffffffffffffffffffffffff1681526020016000815260200160008152602001606081525090565b600081519050919050565b600082825260208201905092915050565b6000819050602082019050919050565b600081519050919050565b600082825260208201905092915050565b60005b83811015610e6a578082015181840152602081019050610e4f565b60008484015250505050565b6000601f19601f8301169050919050565b6000610e9282610e30565b610e9c8185610e3b565b9350610eac818560208601610e4c565b610eb581610e76565b840191505092915050565b6000819050919050565b610ed381610ec0565b82525050565b600073ffffffffffffffffffffffffffffffffffffffff82169050919050565b6000610f0482610ed9565b9050919050565b610f1481610ef9565b82525050565b600060c0830160008301518482036000860152610f378282610e87565b9150506020830151610f4c6020860182610eca565b506040830151610f5f6040860182610f0b565b506060830151610f726060860182610eca565b506080830151610f856080860182610eca565b5060a083015184820360a0860152610f9d8282610e87565b9150508091505092915050565b6000610fb68383610f1a565b905092915050565b6000602082019050919050565b6000610fd682610e04565b610fe08185610e0f565b935083602082028501610ff285610e20565b8060005b8581101561102e578484038952815161100f8582610faa565b945061101a83610fbe565b925060208a01995050600181019050610ff6565b50829750879550505050505092915050565b6000602082019050818103600083015261105a8184610fcb565b905092915050565b61106b81610ec0565b82525050565b60006020820190506110866000830184611062565b92915050565b6000604051905090565b600080fd5b600080fd5b6110a981610ec0565b81146110b457600080fd5b50565b6000813590506110c6816110a0565b92915050565b600080fd5b600080fd5b7f4e487b7100000000000000000000000000000000000000000000000000000000600052604160045260246000fd5b61110e82610e76565b810181811067ffffffffffffffff8211171561112d5761112c6110d6565b5b80604052505050565b600061114061108c565b905061114c8282611105565b919050565b600067ffffffffffffffff82111561116c5761116b6110d6565b5b61117582610e76565b9050602081019050919050565b82818337600083830152505050565b60006111a461119f84611151565b611136565b9050828152602081018484840111156111c0576111bf6110d1565b5b6111cb848285611182565b509392505050565b600082601f8301126111e8576111e76110cc565b5b81356111f8848260208601611191565b91505092915050565b60008060006060848603121561121a57611219611096565b5b6000611228868287016110b7565b935050602084013567ffffffffffffffff8111156112495761124861109b565b5b611255868287016111d3565b925050604084013567ffffffffffffffff8111156112765761127561109b565b5b611282868287016111d3565b9150509250925092565b600061129782610ed9565b9050919050565b6112a78161128c565b81146112b257600080fd5b50565b6000813590506112c48161129e565b92915050565b6000602082840312156112e0576112df611096565b5b60006112ee848285016112b5565b91505092915050565b61130081610ef9565b811461130b57600080fd5b50565b60008135905061131d816112f7565b92915050565b60006020828403121561133957611338611096565b5b60006113478482850161130e565b91505092915050565b600082825260208201905092915050565b7f57726f6e6720506572736f6e2043616c6c696e67000000000000000000000000600082015250565b6000611397601483611350565b91506113a282611361565b602082019050919050565b600060208201905081810360008301526113c68161138a565b9050919050565b7f4e487b7100000000000000000000000000000000000000000000000000000000600052602260045260246000fd5b6000600282049050600182168061141457607f821691505b602082108103611427576114266113cd565b5b50919050565b60008190508160005260206000209050919050565b60006020601f8301049050919050565b600082821b905092915050565b60006008830261148f7fffffffffffffffffffffffffffffffffffffffffffffffffffffffffffffffff82611452565b6114998683611452565b95508019841693508086168417925050509392505050565b6000819050919050565b60006114d66114d16114cc84610ec0565b6114b1565b610ec0565b9050919050565b6000819050919050565b6114f0836114bb565b6115046114fc826114dd565b84845461145f565b825550505050565b600090565b61151961150c565b6115248184846114e7565b505050565b5b818110156115485761153d600082611511565b60018101905061152a565b5050565b601f82111561158d5761155e8161142d565b61156784611442565b81016020851015611576578190505b61158a61158285611442565b830182611529565b50505b505050565b600082821c905092915050565b60006115b060001984600802611592565b1980831691505092915050565b60006115c9838361159f565b9150826002028217905092915050565b6115e282610e30565b67ffffffffffffffff8111156115fb576115fa6110d6565b5b61160582546113fc565b61161082828561154c565b600060209050601f8311600181146116435760008415611631578287015190505b61163b85826115bd565b8655506116a3565b601f1984166116518661142d565b60005b8281101561167957848901518255600182019150602085019450602081019050611654565b868310156116965784890151611692601f89168261159f565b8355505b6001600288020188555050505b505050505050565b7f4e487b7100000000000000000000000000000000000000000000000000000000600052603260045260246000fd5b6000815490506116e9816113fc565b9050919050565b8181036116fe5750506117d6565b611707826116da565b67ffffffffffffffff8111156117205761171f6110d6565b5b61172a82546113fc565b61173582828561154c565b6000601f8311600181146117645760008415611752578287015490505b61175c85826115bd565b8655506117cf565b601f1984166117728761142d565b965061177d8661142d565b60005b828110156117a557848901548255600182019150600185019450602081019050611780565b868310156117c257848901546117be601f89168261159f565b8355505b6001600288020188555050505b5050505050505b565b7f4e487b7100000000000000000000000000000000000000000000000000000000600052601160045260246000fd5b600061181282610ec0565b915061181d83610ec0565b9250828201905080821115611835576118346117d8565b5b92915050565b600061184682610ec0565b91507fffffffffffffffffffffffffffffffffffffffffffffffffffffffffffffffff8203611878576118776117d8565b5b60018201905091905056fea2646970667358221220d7cb4ddc1309ebec4c9c7eb056415fbed6766c444d2d626be864797acd0fb63764736f6c63430008130033",
  "linkReferences": {},
  "deployedLinkReferences": {}
}